:020000040000fa
:100000000200d2021003000000000002100b0000ea
:10001000000000021013000000000002101b00008e
:10002000000000021023000000000002102b00005e
:10003000000000021033000000000002103b00002e
:10004000000000021043000000000002104b0000fe
:10005000000000021053000000000002105b0000ce
:10006000000000021063000000000002106b00009e
:10007000000000021073000000000002107b00006e
:10008000000000021083000000000002108b00003e
:10009000000000020da7e490000278a4790180021c
:1000a000f0a3d8fcd9fa7aa57b009000e47809790e
:1000b000018015e493a3ad82ae838a828b83f0a383
:1000c000aa82ab838d828e83d8e9d9e71203b1125d
:1000d0000dc675d00075813f751c8075931e5392b7
:1000e000fe0200960010000000000200bb0102e7c3
:1000f00022c0925392fec082c08389828a83bb0051
:1001000003e08002e493d083d082d09222bb00151a
:10011000c0925392fec082c0838a838982f0d083ca
:10012000d082d09222bb0101f722cac0e0e6f309d7
:1001300008dafad0e0fa22cac0e0e0f208a3dafa5c
:10014000d0e0fa22600c08c6c313c618c613c6d581
:10015000e0f422700422600d18c6c333c608c6330b
:10016000c6d5e0f41822e4735392fed083d08225e2
:100170001cf8c51cc39824fbcef208e520f208e960
:10018000c0e07908e709f208defad0e0f9eff208fa
:10019000d0e0fed0e0f208eef208e473a81ce2fe24
:1001a00008e208f520e9c0e07908e208f709dffa7b
:1001b000e208ffd0e0f9e208c0e0e208c0e0881cf5
:1001c0005392fe22e584f208e585f222e208f584e6
:1001d000e2f585227403800474028000c9c0e0e562
:1001e0001cc399f51cc912012ad0e0f922740380be
:1001f00000c8c0e0e51cc398f51cc8120137d0e068
:10020000f82275bc0075bc005392fe22800f8a82d2
:100210008b835392fee0f5bda3aa82ab83ecf8ed8d
:10022000f9e824ff1ce934fffde84970e15392fe30
:1002300022e5bdf9e5bcfae9fb5392fe227400f514
:10024000d374022408f5d25392fe22a2afe433f80d
:10025000c2af5392fe906270e0a2e740f5e9c3336b
:10026000906272f0906270e0d2e0f0e0a2e740fbb2
:10027000e8a2e092af2274fa120168a2af33f8c28a
:10028000afed900002f0eca3f0a37462f0a37473de
:10029000f0a3e4f0e9a3f0a37412f0a37442f0eb2e
:1002a000906272f0ea906271f07400f5d575d40234
:1002b00075d601906270e0d2e1f0e0a2e740fbe881
:1002c000a2e092af7f0102019c5392fe906276e021
:1002d00075c6807480659e70fa9062707408f02212
:1002e000c008c0098908750900740b780812015309
:1002f000fae5094480fbd009d0085392fe2274f736
:10030000120168909093e064bf7063e5c7f508122e
:10031000020275c7007c937d007a007b9012020c6c
:100320007c5d7d077aa37b9012020c909094e01480
:10033000f5097f00801674032ffef91202e0eec467
:10034000540ff5c77c007d0812020c0fefc395090e
:1003500040e48508c71202318a088b09a808a90958
:10036000909095e0687003a3e069703e8038e5c71f
:10037000f5087fa57e02eef91202e08a828b83eef9
:10038000c4540ff5c778007908e02fffa3e824ffd5
:1003900018e934fff9e84970f00eeec3943040d606
:1003a0008508c7ef70047901800279007f0402019b
:1003b0009c5392fe900001e090001af0e59d5418c5
:1003c00064107005e0a2e04035e5c7f8790075c714
:1003d00000909000e0640270010988c7e9a2e05033
:1003e0001d1202fee960179000017403f00592905f
:1003f00000a5e0f582a3e0f58305921201661202e2
:10040000c9900001e4f012023d12069e1206ce12bf
:10041000071e80fb74f8120168151c151ca81c121d
:1004200001c490620ee0fee4f0906211e0ffa2e4ed
:1004300050197480f09000227407f01206276006ad
:10044000120643120166900022e4f0efa2e2500b84
:10045000906211e4f0900022f08060900022e0f8b9
:100460007402687042906216e0ff9000391201ed4c
:10047000eff97a207b621206da051c051c051c8f39
:100480000890003c12061c12060f2f1206321206ac
:100490002a6004744080027448906211f0e8496058
:1004a000030205fc0205df7406687006120643129b
:1004b0000166900022e06003020589efa2e040039c
:1004c0000205fc750831750900750a0078081201eb
:1004d000d479087a207b621206da051c051c051cfb
:1004e00090003ee4f0a3f0900031e054e0600e2470
:1004f000e0606a24a0604024e06071807ea3e01484
:10050000602624fe601d24fe600a24fc601f24fe79
:1005100060208067120a8e900022e0640470647488
:10052000608062120a8880ef120a8280ea120bbe93
:1005300080e5120cf580e0a3e0600e24fa600f2441
:10054000fe601024fe601180321208be80c9120abb
:10055000d680c4120b9880bf120c9780ba90003ed0
:100560007446f0a37407f012074680ab90003e7407
:100570000cf0a37408f012080c809c900022740404
:10058000f0809c7440906211f0900022e0f87401b9
:1005900068705e7f0290003ce0f8a3e0f9c3e89445
:1005a00020e994005007e8f50a7f0a8003750a20c5
:1005b0009000391201eda90a7a207b621206f30538
:1005c0001c051c051c850a0812060f250812063298
:1005d00012061cef906211f0e50ac39420501d1220
:1005e00006276006120643120166900022e4f0809e
:1005f0000b7405687006120643120166ee90620ed7
:10060000f0a81c1201cc051c051c7f0302019c9064
:100610000039e0f9a3e0faa3e0fbe922c3e0950882
:10062000f0a3e09400f02290003ee0f8a3e0f9e8a7
:100630004922f9e43afa900039e9f0a3eaf0a3eb91
:10064000f0a322059290003ee0f582a3e0f5830539
:100650009222c008c0097800742328f582e434008f
:10066000f583e95392fef008e8c3940540ea780068
:10067000742828f582e43400f583e9f008e8c3948f
:100680000540edd009d008225392fe90001b740261
:10069000f0a3e4f0900022f0790312065222c00881
:1006a000c00975082175090078081201d87c007d01
:1006b000007a407b00120dca051c051c90001b74bb
:1006c00002f090620f04f0e0a2e750fb80b553f413
:1006d000fed29043fe015392fe2212070c6010538b
:1006e00092fee012010de9240109e43afadcf0532c
:1006f00092fe2212070c60101200ec5392fef0e9f9
:10070000240109e43afadcf05392fe228a828b83b8
:10071000e9fca81ce2f908e2fa08e2fbec22eec0d0
:10072000e05392fe906206e0f8906202e0fe906272
:1007300004e0e8a2e25003120688eea2e0500312a1
:100740000414d0e0fe2274f7120168900032e070c9
:10075000030207f114600302080190001a7401f00b
:10076000900022e0f87038900037e0f8a3e0f9e854
:1007700049700d9000ab7402f0900022e40208066c
:100780009000397461f0a37400f0a3e4f0a3e8f0e2
:10079000a3e9f09000227402f09000ab048067742b
:1007a0000268705d900033e02440f508a3e0340057
:1007b000f509e508541f701285080a85090b7405b0
:1007c000780a120144a90a12024b900037e0240370
:1007d00054fcf97c617d0074047808120153aa0866
:1007e000ab09120276900022e4f09000ab74058011
:1007f0001590001a7402f0900022e4f075c9088088
:10080000069000227404f07f0402019c5392fe9033
:100810000032e06403701a90003974a7f0a37400ea
:10082000f0a3e4f0a37406f0a3e4f090002204f037
:100830002280009000227404f0225392fe9000a1c6
:10084000e4f0a3740ff02274fa120168151c151c51
:10085000a81c1201c4eafcebf87a007b000880387f
:10086000e8604d05929000a1e0fda3e0f5838d8244
:10087000a3e493fdec6d6034e96d70099000a1e094
:10088000faa3e0fb189000a1e02efea3e03400ffe5
:100890009000a1eef0a3eff09000a1e0f584a3e0ba
:1008a000f585e4059293fe70b7e860047a007b005a
:1008b000a81c1201cc051c051c7f0102019cc0086c
:1008c000120c896003020996a3e0f8a3e06003021a
:1008d0000996a3e064027002a3e060030209969007
:1008e0000031e02480600914604f14605c020996b6
:1008f000e8600302099690002ee06004780180020f
:1009000078009000a3e8f0a3e4f090002de0600ae6
:100910009000a3e04402f0a3e4f0900022e064041d
:10092000601490003974a3f0a37400f0a3e4f0a362
:100930007402120cecf0d0082290001be0640470ea
:10094000559000a3e4f0a380d0e8547ff508900010
:100950001be064047040e508c394065039741b25fd
:1009600008f582e43400f583e854806018a3a3a35b
:10097000a3a3a3a3e064037004780180027800902d
:1009800000a3e88091e582240cf58250020583e003
:10099000640370e980e39000227404809874f91273
:1009a0000168151c151ca81c1201c4e9fa90003737
:1009b000120c8f6003020a6c90001be06404600b51
:1009c000900035120c8f6003020a6c900031e054e5
:1009d0001f6009146023146012020a6c900033e057
:1009e00064017015ea90002d020a71900035e05400
:1009f0007ff508900033e0600479008077e508c354
:100a000094065068e50890620ef0741b2508f58482
:100a1000e43400f585900035e054806021ea6004fc
:100a2000741080027440906211f0ea6004740380d4
:100a300001e40592a3a3a3a3a3a3a3f08025ea60e6
:100a400004742080027480906214f0ea60047403dd
:100a50008001e4c0e0e584240cf582e43585f5836b
:100a6000d0e0f05392fe90620ee480059000227474
:100a700004f07901a81c1201cc051c051c7f0202a0
:100a8000019c790012099d22790112099d2253923d
:100a9000fe900035120c8f7018a3120c8f701290fc
:100aa0000033e0f8a3e0f9e85480fae9fbea4b6090
:100ab00002801ce8906200f090001b6009e0640274
:100ac000700c7403f022e0640370037402f022904f
:100ad00000227404f02274f812016812083a90009f
:100ae00033e0faa3e0f914600814600d146031805b
:100af000377b007a0079018033eafb7a00790212b1
:100b00000847120b83e92402f9e43afa89828a83be
:100b1000e493f8740193f990003ce8f0a3e9801c99
:100b2000eafb7a00790380047b007a0012084712fe
:100b30000b83a37b801200eca3f0a3e4f0900039b8
:100b4000e0fca3e0fda3e0feec4d4e90002270041b
:100b500074048029e064046025900037e0faa3e083
:100b6000fb90003ce0f8a3e0f9c3ea98eb99500849
:100b700090003ceaf0a3ebf09000227401f07f03b8
:100b800002019c900039eaf0a3ebf0a37480f0908e
:100b90000039e0f9a3e0fa22120c897010a3120cbc
:100ba0008f700aa3e064017002a3e06003020acf21
:100bb000900039741cf0a37400120ce2f02274f857
:100bc00012016890001be064027003020c70900038
:100bd00035120c8f6003020c70a3120c8f6003029d
:100be0000c70900034e06003020c7012083a900020
:100bf00033e07003020c787b007a00790212084718
:100c00008a088b09ae08af09ee4f6064900033e0ac
:100c1000f88e828f83a3a3a3a3a3e493c0e0e8fa92
:100c2000d0e06a70d290001b7404f0e8a3f0750a5b
:100c3000008e828f83a3a3a3a3e493f8e50ac3984d
:100c40005044850a08741d2508f582e43400f583b4
:100c5000e4f07b007a0079041208478a828b83e5ee
:100c60008245836007a3a3a3e49370e6050a80c1cd
:100c70009000227404f0800e90001cf090001b7411
:100c800003f0f9120652020b7e5392fe900033e0fd
:100c9000f8a3e0f9e8492274f812016890001be01b
:100ca00064047019900031e064817011120c8c7032
:100cb0000c900037e064017002a3e060079000220e
:100cc0007404801a900035e0241df508a3e0340078
:100cd000f509900039e508f0a3e509120ce2f002ed
:100ce0000b7ef0a3e4f0a304120cec22f0a3e4f0da
:100cf000900022042274f9120168151c151ca81c0e
:100d00001201c490001be064046003020d9a90007d
:100d100031e064016003020d9a900037120c8f706d
:100d20007912083a7b007a0079021208478a828b8e
:100d300083e5824583600fa3a3a3a3a3e493f89064
:100d4000001ce06870de7b007a0279041208478a92
:100d5000828b83e582458360410592900033e0f801
:100d6000a3e0f9900035e0faa3e0fb858284858357
:100d700085a3a3e493fcea6c7001eb600d0592a3dc
:100d8000a3a3e493fce86c4970bc741d2af582743b
:100d9000003bf583e85392fe80059000227404f036
:100da000020a745392fe2274fa120168151c151c73
:100db000eafeebffa81ceef208eff2aa1cab937957
:100dc00001120da380ee1200932274fa120168e55d
:100dd0001c2406f8e2fe08e2ffee4f6014ecf88aed
:100de000828b83e8f0a3ee24ff1eef34ffff4e70ea
:100df000f27f0102019cffffffffffffffffffffec
:100e0000fffffffffffffffffffffffffffffffff2
:100e1000ffffffffffffffffffffffffffffffffe2
:100e2000ffffffffffffffffffffffffffffffffd2
:100e3000ffffffffffffffffffffffffffffffffc2
:100e4000ffffffffffffffffffffffffffffffffb2
:100e5000ffffffffffffffffffffffffffffffffa2
:100e6000ffffffffffffffffffffffffffffffff92
:100e7000ffffffffffffffffffffffffffffffff82
:100e8000ffffffffffffffffffffffffffffffff72
:100e9000ffffffffffffffffffffffffffffffff62
:100ea000ffffffffffffffffffffffffffffffff52
:100eb000ffffffffffffffffffffffffffffffff42
:100ec000ffffffffffffffffffffffffffffffff32
:100ed000ffffffffffffffffffffffffffffffff22
:100ee000ffffffffffffffffffffffffffffffff12
:100ef000ffffffffffffffffffffffffffffffff02
:100f000012010002000000205824feff0000010230
:100f1000030109021b0001010480250904000000ef
:100f2000fe01020409210d03e84000010104030948
:100f300004120342006c00750065006700690067d9
:100f400000610016034c006f007700200045006e22
:100f50000065007200670079000a03310032003337
:100f6000003400080344004600550000ffffffff67
:100f7000ffffffffffffffffffffffffffffffff81
:100f8000ffffffffffffffffffffffffffffffff71
:100f9000ffffffffffffffffffffffffffffffff61
:100fa000ffffffffffffffffffffffffffffffff51
:100fb000ffffffffffffffffffffffffffffffff41
:100fc000ffffffffffffffffffffffffffffffff31
:100fd000ffffffffffffffffffffffffffffffff21
:100fe000ffffffffffffffffffffffffffffffff11
:100ff000ffffffffffffffffffffffffffffffff01
:10100000021108022fa1ffffffffff023b08ffffb5
:10101000ffffff023bb7ffffffffff023c6effff3a
:10102000ffffff02258cffffffffff0238ceffff0f
:10103000ffffffffffffffffffffff023c0effff71
:10104000ffffff023b92ffffffffffffffffffffde
:10105000ffffff022f87ffffffffffffffffffffe5
:10106000ffffffffffffffffffffff023a45ffff0c
:10107000ffffff023ce0ffffffffff023ac8ffff58
:10108000ffffff022facffffffffffffffffffff90
:10109000ffffffbf2a6e12000000000000000000ea
:1010a0000000b87582fd75837f7400121123e47906
:1010b000347802b800028004f709d8fce4900302f7
:1010c00078dd79058002f0a3d8fcd9fa7ade7b07b7
:1010d000901144786379028015e493a3ad82ae83c6
:1010e0008a828b83f0a3aa82ab838d828e83d8e918
:1010f000d9e77582fa7583da74021211237582f1c9
:101100007583de740212112375d00075813f75312d
:1011100000753202753303759f007593005392fe7c
:101120000210aec09ff59fe473d09f225392fed071
:1011300083d082c09fe493c0e0740193c0e0740246
:1011400093f59f220300000201020300000f00c379
:10115000a88ee8b19dcf7f5eb98b9f41efb055f46b
:1011600001fa00960064004b0032001e001400d605
:10117000be898e000106021213151429417671fff3
:10118000c1fbe84c90728be7b3518963ab23230218
:10119000841872aa612f3b51a8e53749fbc9ca0cd4
:1011a00018532cfd45e300400000fffffffffaff4e
:1011b000ffff00008000620000000500060007003d
:1011c0000000010001000001000102020300020012
:1011d00000000000020201000240420f001900005e
:1011e00000093d0000e4fffffffb349b5f8000002f
:1011f00080001000000000000000800100010000dd
:10120000000000010805000000ff000000000000d1
:1012100007030000008000010000800000040000bf
:1012200000000007090000000d0000010407000095
:101230000000000201000002020000070a0000088e
:1012400005b61abc1ac21ac81ace1ad41a3e1a48bf
:101250001c2a1cae1c961c9c1c800004050200006d
:1012600000800004060600000080000402800004e4
:1012700004800002000b000000800006000e17cc66
:101280001312193e14a81c4e1c7c1bb41c381a5097
:101290000601ffffff0000000080ffffffff0000ce
:1012a0000000c000000012112cc8ae0212112ce088
:1012b000ae0212112c0baf0212112c58af021211f8
:1012c0002c70af0212112c98af0212112ce8af0251
:1012d00012112c18b00212112c79b00212112c9597
:1012e000b00212112cb1b00212112cd6b0021211a0
:1012f0002c2fb10212112cbeb50212112c72b602a3
:1013000012112cd9db0212112cf1db0212112c620a
:10131000dc0212112ca5dc0212112cc3c602121120
:101320002c57c70212112ccdc70212112ce3c70291
:1013300012112c0fc80212112c24c80212112c7d7c
:10134000c80212112c9ec80212112cfcc8021211e4
:101350002c41c90212112cb2c90212112cddc90292
:1013600012112c61ca0212112c90ca0212112caf58
:10137000ca0212112cc3ca0212112c08cb0212117c
:101380002c56cb0212112c09c20212112c25c202ba
:1013900012112c5bc20212112c69c20212112c9a7a
:1013a000c20212112cc7c20212112cd0c202121199
:1013b0002c13c30212112c99c30212112c06c40261
:1013c00012112c57c40212112c86c40212112cdaed
:1013d000c40212112cacc50212112cb7c502121195
:1013e0002ceac50212112c1bc60212112c6cc6026b
:1013f00012112ca9c60212112c9f7f0012112cbfb2
:101400007f0012112ce87f0012112c56dd02121100
:101410002c6add0212112cc1dd0212112cdade025f
:1014200012112cd3dc0212112c00dd0212112c0f30
:101430009d0212112c769d0212112c8d9d0212110b
:101440002cd19d0212112c179e0212112c6b9e02a0
:1014500012112cbe9f0212112c97a00212112c3ec9
:10146000a10212112c62a10212112ca4a1021211cc
:101470002c3fa20212112c8da20212112ceba202ff
:1014800012112cfea20212112ceea30212112cf04a
:10149000a40212112c62a50212112cb93d001211e6
:1014a0002c5f3f0012112ce33f0012112c31410040
:1014b00012112ca0410012112cda410012112ca49f
:1014c000420012112c32430012112c11440012114f
:1014d0002c25450012112c17460012112c514700e3
:1014e00012112caa470012112c12480012112c8f35
:1014f000480012112c30490012112ca2490012117f
:101500002c3b4a0012112ca14a0012112c0f4b0047
:1015100012112c644b0012112cec4b0012112ca256
:101520004c0012112c584d0012112c1a4f001211a0
:101530002c4b510012112c90510012112c0c520006
:1015400012112c75520012112cc3520012112c6f63
:10155000540012112c0f550012112c9b5500121122
:101560002cdc550012112c5d570012112cbe5700b7
:1015700012112ce0580012112ce7590012112c16f0
:101580005b0012112c4a5c0012112c225e00121119
:101590002ce0600012112c78610012112c356200d1
:1015a00012112c26630012112c86630012112ce5f7
:1015b000670012112c606a0012112c2e6b001211a0
:1015c0002c6e6d0012112c846e0012112cad6f0068
:1015d00012112cc46f0012112c5ccb0212112c9b27
:1015e000cb0212112cc8cb0212112cf5cb02121116
:1015f0002ce2cc0212112cb9cd0212112ce5fe0105
:1016000012112c3eff0112112c9fff0112112c0010
:10161000800112112c1e800112112c3b800112112d
:101620002c58800112112cde800112112cf682013f
:1016300012112c5c830112112ccc830112112c0c81
:10164000840112112c40840112112c828401121188
:101650002cf0840112112c9e850112112cb68501eb
:1016600012112ced860112112c1b890112112ca1d3
:10167000890112112cd5890112112c138b01121121
:101680002c318c0112112c528c0112112c708c01f6
:1016900012112cac8c0112112cdf8c0112112cb305
:1016a000900112112cdb900112112c2791011211c3
:1016b0002ceb960112112c37970112112c789701ff
:1016c00012112c24980112112ce5980112112c7280
:1016d0009b0112112cc19c0112112c319d01121180
:1016e0002c7b9f0112112cf69f0112112c3aa001a4
:1016f00012112c86a00112112cdea00112112c7fd8
:10170000a10112112cc9a10112112c24a201121144
:101710002c2ea20112112c61a30112112cf4a30191
:1017200012112cb4a40112112c51a50112112ce795
:10173000a60112112c08a70112112c63a901121184
:101740002c7daa0112112c1dab0112112c91ab01a1
:1017500012112c2dac0112112c38ae0112112c4992
:10176000ae0112112c53ae0112112c3ab00112111c
:101770002ca1b00112112cd0b00112112c3eb101dc
:1017800012112c6db10112112c15b20112112c93f2
:10179000b20112112cfdb20112112c73b3011211fe
:1017a0002ca9b30112112cdeb30112112cfdb301cf
:1017b00012112c5cb40112112c6ab40112112ca963
:1017c000b40112112c18b50112112cafd60212114e
:1017d0002c6bd70212112c8dd70212112cd8d702e4
:1017e00012112c1bd80212112cbcde0212112cd2a9
:1017f0008f0212112cfe8f0212112c469002121130
:101800002c9b900212112cfc900212112c5d930261
:1018100012112c8f940212112c9c970212112ce0a1
:10182000970212112ceb980212112ced9902121151
:101830002c689b0212112cdd9b0212112cf09c02d1
:1018400012112cffcd0212112c2bce0212112c42a0
:10185000ce0212112c46ce0212112ce0ce02121131
:101860002c05d00212112c97de0112112cf8de018a
:1018700012112c15df0112112c42df0112112c6ef6
:10188000df0112112ca2df0112112cf1df01121164
:101890002c20e00112112c83e00112112ce0e00158
:1018a00012112caee10112112c28e20112112cc9e7
:1018b000e30112112c81e40112112c2fe701121106
:1018c0002cd5ea0112112c16eb0112112c6feb0131
:1018d00012112c1fec0112112cfded0112112c8d97
:1018e000ee0112112cceee0112112c24ef01121177
:1018f0002c7cef0112112ca2ef0112112cf5ef013b
:1019000012112c36f00112112ca7f10112112cc862
:10191000f20112112cd9f20112112c5df4011211f5
:101920002c73f40112112c9bf40112112c3bf501c4
:1019300012112c50f50112112c82f50112112c8874
:10194000f60112112c1ff70112112c55f70112117b
:101950002c9df70112112c91f80112112cecf801b9
:1019600012112cd3f90112112c46fa0112112c8af2
:10197000fa0112112c70fb0112112cccfd01121175
:101980002cfcfd0112112c7cfe0112112c6dd802d1
:1019900012112c7ad80212112c9dd80212112ce0af
:1019a000d90212112cedd90212112c1bda021211dc
:1019b0002c4dbd0212112c6cbd0212112c37be022f
:1019c00012112cddbf0212112c3bc00212112c6d22
:1019d000c10212112cd6c10212112c0a7f00121161
:1019e0002c387f0012112c627f0012112c9ed00225
:1019f00012112c27d10212112c59d10212112cc90b
:101a0000d10212112c6bd20212112c93d20212119c
:101a10002cdeb50112112c34b60112112c3ab8018a
:101a200012112cc5b90112112c8bba0112112c9b69
:101a3000bb0112112c39bc0112112cb6bc011211c0
:101a40002c68bd0112112cd0bf0112112c50c00105
:101a500012112cb4c00112112c5ec10112112c7094
:101a6000c20112112c75c30112112cf6c7011211fb
:101a70002c45ca0112112cf0cc0112112ca2cf015d
:101a800012112c82d20112112c65d40112112cd00a
:101a9000d60112112c68db0112112c19dd01121173
:101aa0002c96dd0112112c20de0112112c74de01a6
:101ab00012112cd1d40212112c4fd50212112c6507
:101ac000d50212112c7bd50212112c91d5021211c4
:101ad0002cb2d50212112cc8d50212112cded5025f
:101ae00012112c9a760012112c2a770012112cadab
:101af000770012112cd3770012112c9f780012114d
:101b00002c55790012112c95790012112c1b7a009a
:101b100012112c8d7a0012112cef7a0012112c6cfc
:101b20007b0012112c7f7b0012112c937b00121171
:101b30002cc87b0012112cfa7b0012112c2c7c007b
:101b400012112c727c0012112cb27c0012112c0686
:101b50007d0012112c157d0012112c1e7d0012111a
:101b60002cb17d0012112ce87e0012112c8eb602d1
:101b700012112c9db60212112c9bb70212112cad22
:101b8000b70212112c3bb90212112cf0b90212113a
:101b90002c59ba0212112c72ba0212112c88ba02f4
:101ba00012112cc2ba0212112c05bb0212112c4fb9
:101bb000bb0212112c98bb0212112c63bc02121131
:101bc0002c71bc0212112c79bc0212112ca1bc0286
:101bd00012112cbabc0212112cdfbc0212112cff04
:101be000bc0212112c0fbd0212112c1fbd021211ca
:101bf0002c31bd0212112c3fbd0212112c24da022d
:101c000012112c51da0212112c00800212112ca791
:101c1000800212112cff800212112c42810212113b
:101c20002c158d0212112c478d0212112c4a8f0295
:101c300012112ce4d20212112c46d30212112c6a7a
:101c4000d30212112cb9d30212112c0dd40212118d
:101c50002caed40212112cc7d40212112c98a60259
:101c600012112cb5a60212112cc5a70212112c2498
:101c7000a80212112ccca80212112c4baa0212118c
:101c80002cf7aa0212112c3eab0212112c9cab02b3
:101c900012112c02ac0212112c54ac0212112ce0c5
:101ca000ac0212112c5bad0212112c34ae021211d7
:101cb0002cffde0212112c03df0212112c05df02b1
:101cc00012112c0bdf0212112ca3100012112ccdbb
:101cd000dd0212112c3ade0212112c8dde02e766b3
:101ce00070100809e766700a0809e76670040809b9
:101cf000e76622e066701008a3e066700a08a3e0b9
:101d000066700408a3e06622c3e7960809e7960810
:101d100009e7960809e796a2d265d03322c3e09678
:101d200008a3e09608a3e09608a3e096a2d265d0a7
:101d30003322c021c3e096f52108a3e09642210892
:101d4000a3e096422108a3e0964221a2d265d033b7
:101d5000e5217001d3d02122c3e7960809e7960850
:101d600009e7960809e79622c3e09608a3e09608db
:101d7000a3e09608a3e09622c021c3e096f52108cf
:101d8000a3e096422108a3e096422108a3e09645ed
:101d9000217001d3d02122080808eac0e0ebc0e09e
:101da00086f0e7a4fa180986f0e7a42afa1809864b
:101db000f0e7a42afa180986f0e7a42afa1986f0af
:101dc000e7a4fbe5f02afa190886f0e7a42bfbe567
:101dd000f03afa190886f0e7a42bfbe5f03afa1876
:101de000180986f0e7a4c5f02bfbe43afa1908e7d6
:101df000c5f0c6a426f6e5f03bfbe43afa1886f0f7
:101e0000e7a4f6e5f00826f6e43b08f6e43a08f61f
:101e1000d0e0fbd0e0fa22e4cfc0e0e4cec0e0e4c2
:101e2000cdc0e0e4ccc0e075f020e626f608e6334d
:101e3000f608e633f608e633f6181818ec33fced2e
:101e400033fdee33feef33ffc3ec9709ed9709ee58
:101e50009709ef97191919400fffec97fc09ed97b7
:101e6000fd09ee97fe191906d5f0bfecf709edf75d
:101e700009eef709eff7191919d0e0fcd0e0fdd011
:101e8000e0fed0e0ff22121eee181818121e1712e4
:101e90001edd19191922121edd191919080808e684
:101ea00018181820e7e0121e17121eee1818182234
:101eb000090909e719191920e7dc080808e61818c4
:101ec0001820e703021e17121eee181818121e170c
:101ed000121eee181818121edd19191922e4c397e4
:101ee000f709e497f709e497f709e497f722e4c3c1
:101ef00096f608e496f608e496f608e496f622606c
:101f000017080808c6a2e713c618c613c618c613d2
:101f1000c618c613c6d5e0e9226016080808c6c36d
:101f200013c618c613c618c613c618c613c6d5e0fe
:101f3000ea227009080808226016181818c6c33368
:101f4000c608c633c608c633c608c633c6d5e0ead7
:101f500022e627f60809e637f60809e637f6080903
:101f6000e637f622e026f608a3e036f608a3e036c8
:101f7000f608a3e036f622e026f008a3e036f008e3
:101f8000a3e036f008a3e036f022c3e697f608098e
:101f9000e697f60809e697f60809e697f622c3e001
:101fa000c696f608a3e0c696f608a3e0c696f6081d
:101fb000a3e0c696f622e657f60809e657f60809a2
:101fc000e657f60809e657f622e056f608a3e0566b
:101fd000f608a3e056f608a3e056f622e647f60810
:101fe00009e647f60809e647f60809e647f622e05b
:101ff00046f608a3e046f608a3e046f608a3e04646
:10200000f622e046f008a3e046f008a3e046f00818
:10201000a3e046f022e667f60809e667f60809e657
:1020200067f60809e667f622e066f608a3e066f6ba
:1020300008a3e066f608a3e066f622e0f608a3e04f
:10204000f608a3e0f608a3e0f622e6f008a3e6f01f
:1020500008a3e6f008a3e6f022e0faa3e0fba3e081
:10206000fca3e0fd22eaf0a3ebf0a3ecf0a3edf07b
:1020700022e0fca3e0fda3e0fea3e0ff22ecf0a33e
:10208000edf0a3eef0a3eff022e0f8a3e0f9a3e077
:10209000faa3e0fb22e8f0a3e9f0a3eaf0a3ebf057
:1020a00022cac0e0e6f0a308dafad0e0fa22cac0f9
:1020b000e0e0a30592f0a30592daf6d0e0ca22533d
:1020c00092fefae9fb7921e7f0a309dafae8f0a336
:1020d000ebf9f0a3ecf0a3edf0a3eef0a3eff0a387
:1020e000e520f0a3e5f0f0a3e592f0a3e584f0a3ea
:1020f000e585f0a3e581f0a3e531f0a3e532f0a397
:10210000e533f0a3d0e0fad0e0f0a3caf0eac0e0f3
:10211000e0c0e07a007b00225392fecac0e0ebc030
:10212000e07921e0f7a309dafae0f8a3e0f9a3e007
:10213000fca3e0fda3e0fea3e0ffa3e0f520a3e005
:10214000f5f0a3e0c0e0a3e0f584a3e0f585a3d01b
:10215000e0f592d0e0fbd0e0fae0f581a3e0f531c4
:10216000a3e0f532a3e0f533a3d0e0d0e0e0c0e097
:10217000a3e0c0e0ea4b70027a0122b90010bb0074
:1021800008e88af084f8aaf022e4fbc8fa22eb708f
:10219000227b10c833c8c933c9335007c39ac3db85
:1021a000f280069a50012adbeac833f4c8c933f436
:1021b000c9fa2275f008e4c833c8c933c933c99acb
:1021c000c99b5004c92ac93bd5f0ecfbc833f4c8fd
:1021d000e4c9fa22600d08c6a2e713c618c613c6e2
:1021e000d5e0f322600c08c6c313c618c613c6d5c3
:1021f000e0f422700422600d18c6c333c608c6334b
:10220000c6d5e0f41822253210af08f532400c157f
:10221000338008f53240021533d2af2200c0d025fa
:102220003210af08f532500c05338008f5325002f9
:102230000533d2afd0d0222532f58210af08f53267
:10224000400c15338008f53240021533d2af853388
:102250008322c5822532c582c583353310af07f589
:10226000338582328007f533858232d2afc583222f
:102270002532f582e43533f583222532f584e435c1
:1022800033f585222532f8e43533f9222532fae494
:102290003533fb222532fce43533fd22e4735392bf
:1022a000fe2532c582c0e0e53334ffc583c0e0e5da
:1022b00032c3958224f810af08858333858232803b
:1022c00008858333858232d2afcef0a3e520f0a318
:1022d0007821e608f0a3defaeff0a3e58124faf80e
:1022e000e608f0a3e608f0a3e608f0a30808e6086d
:1022f000f0a3e608f0a315811581d0e0fed0e0f848
:10230000158115811581e8c0e0eec0e0225392fef0
:102310002532c582c0e0e53334ffc583c0e0e53235
:10232000c3958224f910af088583338582328008f3
:10233000858333858232d2afcef0a3e520f0a37837
:1023400021e608f0a3defaeff0a3e58124fbf8e62e
:1023500008f0a3e608f0a30808e608f0a3e608f0f2
:10236000a315811581d0e0fed0e0f815811581e834
:10237000c0e0eec0e0225392fe853383853282e0d6
:10238000a3fee0a3f5207821e0a3f608dffae0a39e
:10239000ffe0a3c0e0e0a3c0e0e0a3c0e0e0a3c092
:1023a000e0e0a3c0e010af08858232858333800867
:1023b000858232858333d2afd083d0825392fe029e
:1023c00011295392fe853383853282e0a3fee0a378
:1023d000f5207821e0a3f608dffae0a3ffe0a3c030
:1023e000e0e0a3c0e0e0a3c0e0e0a3c0e010af08dd
:1023f0008582328583338008858232858333d2afec
:10240000d083d0825392fe22c0925392fec0d02538
:1024100032c582c0e0e53334ffc583c0e0e532c396
:10242000958224f210af0885833385823280088537
:102430008333858232d2afc8f0a3e9f0a3eaf0a3d8
:10244000ebf0a37921e709f0a3d8faecf0a3edf0c3
:10245000a3eef0a3eff0a3d0e0f0a3d0e0f0a3d080
:10246000e0f0a3e520f0a3e5f0f0a3d0e0f02253e4
:1024700092fe853383853282e0c0e0a3e0f9a3e0d9
:10248000faa3e0fba37821e0f608a3dffae0fca3bf
:10249000e0fda3e0fea3e0ffa3e0c0e0a3e0c0e016
:1024a000a3e0f5d0a3e0f520a3e0a3f5f0e0a3c0fe
:1024b000e010af08858333858232800885833385b9
:1024c0008232d2afd0e0d082d083f592d0e0f8d083
:1024d000e032e584f0a3e585f022e0a3f584e0f5a1
:1024e000852274048006740280027401c0e0f40442
:1024f000122237d0e01220a12274048006740280d8
:10250000027401c0e0f404122237d0e01220ae229f
:10251000d083d082c5f0e493a3c5f0c395f0f5f065
:10252000e493a3c395f04005e5f0048001e475f061
:1025300002a42582f582e5f03583f583e493a3c0f8
:10254000e0e493c0e022d083d082e9c0e0e493a32a
:10255000c386f0c5f095f0f908e493a386f0c5f0c2
:1025600095f0700be493a3c3994005e9048002a39e
:10257000e475f002a42582f582e5f03583f583d079
:10258000e0f9e493a3c0e0e493c0e022c0e0c0d04f
:1025900075d008c092c082c083c0f0759800e5a8cd
:1025a000f8c2af5392fe9004d4e0d2e1f07534004b
:1025b000e8a2e7e433fee8a2e792af1212eed0f011
:1025c000d083d082d092d0d0d0e032c082c08353aa
:1025d00092fe9004a3e4f0a3f0a3f0a3f0d083d084
:1025e000822274f712230d790012198a9003ef12d8
:1025f0002e0aeac398f8eb99f9e82404fee439ffbf
:102600009003fce0fca3e0fdc3ee9cef9d402e9008
:1026100003fae0fca3e0fd9003fee02af8a3e03b10
:10262000f9e8c39cf8e99df99003ef122c28a3ec7c
:10263000f0a3edf09003fcecf0a3ed80239003ef0a
:10264000122ae19003fc122c069003fc122e0a9031
:1026500003f1122c289003f8e07004740280011436
:10266000f07aed7b03123713800ff08532828533c9
:10267000831224da740212221c7f020223c274f72e
:1026800012230de9fe9003f9e0f8ee600924fe60e4
:102690001d14601a80329003f6e0a2e35009e8604e
:1026a000279003f9148020c2e2f0d2e3801990034e
:1026b000f6e0a2e2500c740868600d9003f9e004a3
:1026c0008005c2e3f0d2e2f09003f7e070089003d7
:1026d000f574fff0804890600a122ad9703d90612d
:1026e0008fe0c0e09003f9e0f87408c398f8d0e0f8
:1026f000b800028004c313d8fcf52174ff65217073
:102700000990600ae4f0a3048010e5212401f8e4b4
:102710003400f990600ae8f0a3e9f01225e20226fd
:102720007974f712230de9fe24fc600624fe602a6a
:10273000800d9004bce06401705d1216d880589042
:102740000416e064017013900410e4f0ee700b7b4b
:10275000091238b4fa790012397d900410e070083b
:1027600090040e74fff0802f90618fe0ff790012cb
:10277000198a8b22a922900412e02af8a3e039f9e1
:10278000740f5ffae82af8e439f9900408122c284b
:102790007a067b0412371302267974f712230d741c
:1027a000fe1222371224d2900460122e0ae824125c
:1027b000fae439fb90605ce060088a828b83e0d2a7
:1027c000e1f0e82430fce439fde82432f584e43912
:1027d000f58590605ae0700690605ee060368a820f
:1027e0008b83e0a2e14019d2e1f0e82422f582e4f3
:1027f00039f583122ad11221f38c828d831231cfc5
:10280000e40592f0a3f079008532828533835392f8
:10281000fe022671e81231ad39f583123525858423
:1028200082858583e02ef0a3e03ff08c828d8305c6
:1028300092e0fca3e0fdc30592e09ca3e09d50c69e
:1028400088828983a3a3a3a3a3a3a3a3a38582842c
:102850008583858a828b83e0a2e15004740880021c
:10286000743e0592f07b02888289830592a3a3a31c
:10287000a3a3a3a3a3e0fa790012397d790180888c
:1028800074f512230d74fe1222371224d2122ac9b3
:10289000240af584e43ff5850592e0fc7003022ae2
:1028a000c4122dea0592122e0a8e828f83a3a3a34f
:1028b000a3a3a3a3a38582238583248e828f83a3ce
:1028c000a3a3a3a3a3a3a3a3aa82ab83ee2434123e
:1028d00034bf687003a3e069701a74026c7003025d
:1028e0002a5d74016c607a74096c60258a828b831e
:1028f00074228058ec146069147003022a5d24fa73
:10290000601c14600c146045147003022aa0022a93
:10291000c4906008e0a2e65003022ac4802fee248f
:1029200039f582e43ff583801388828983a3a3a3ca
:10293000e064037003022ac488828983122ad97052
:10294000e88a828b83e0641370037416f07b02853f
:102950002382852483e0fa790012397d7901022ae5
:10296000c6ee245512311fee244cfce43ffdea2450
:10297000fff521eb34fff522e521687003e52269bc
:102980007075ee244d122b678e828f83122adf8c96
:10299000828d83e025e0f8e433f9e82403f8500160
:1029a000098e828f83a3a3a3a3122c29900491e004
:1029b000a2e050098e828f83a3a3122c249004ab33
:1029c000e4f0a3f0a3f0a37402f0900491e0a2e07d
:1029d0004003022ac4906062e4f08c828d83e0f8a8
:1029e00075f0e2a4c8aaf075f004a42af9e8122d43
:1029f000fc122c28022ac4ea687002eb6960030208
:102a00002ac475210975220078211224e6ee241bc0
:102a1000fae43ffb121cd2740212221c900491e0d3
:102a2000a2e05007eefaeffb12312be40592f0ee34
:102a30002422f582e43ff5830592122ad11221f374
:102a4000ee2430f582e43ff5831231cfee2432f5e7
:102a500082e43ff583e4f0a3f07b08805ae8240188
:102a600008500109ee245c1234bf687003a3e069ca
:102a7000705275210575220078211224e6ee245744
:102a8000fce43ffdee2424fae43ffb121cd2740266
:102a900012221ceefaeffb1216d2e40592f080240b
:102aa000eefaeffb1212f4e40592f0059290049115
:102ab000e0a2e0500f7b07852382852483e0fa792a
:102ac0000012397d7900022efa900460123525ee4d
:102ad00022122c1c7403782122122e0ee84922a304
:102ae000a3e028f0a3e039f02274f812230d74fe5d
:102af0001222371224d2900460e0f584a3e0f58519
:102b0000122880e9704e12279ae97048e584242e35
:102b1000f582e43585f583e02401f0a3e03400f08c
:102b2000906008e0c0e0e5842436f582e43585f560
:102b300083d0e0f0e5841231ad3585122b6b059220
:102b4000a3a3e028f0a3e039f005929004601231cd
:102b5000251237138532828533831224da740212e8
:102b6000221c7f010223c2f582e43ff583122b7100
:102b700022e0f8a3e0f9e828f8e933f92274f71223
:102b8000230d74fe1222371224d28a828b83a3a3d0
:102b9000ac82ad839004b0ea241ef584e43bf58555
:102ba0000592e0f8a3e0f9e828f8e933f9900493f6
:102bb000e0f521a3e01231b30592e028f8a3e03953
:102bc000f98c828d83122c289004ab122c0f8c82ee
:102bd0008d83122c069004ad122c0f7a207b4e129e
:102be000217b882189228c828d83e09521f0a3e0ce
:102bf0009522f09004b2122c0fe828f8e933f9e896
:102c0000122df402266ac3e098f0a3e099f0221294
:102c10002e0e900493122c1c1231b922e0f521a340
:102c2000e0f52222a3a3a3a3e8f0a3e9f02274f71e
:102c300012230d74fe1222371224d2122ac9241232
:102c4000f584e43ff5850592e0a2e35008c2e3f085
:102c50000592022dde8e828f830592a3a3858221a9
:102c6000858322906062e06010791012198a8521b4
:102c700082852283eaf0a3ebf0122880e960030248
:102c80002de712279ae96003022de7906008e0c063
:102c9000e0ee2436f582e43ff583d0e0f09061d594
:102ca000e0f89061d7e06805926005e0d2e2800329
:102cb000e0c2e2f00592906062e09004ad6017e03f
:102cc00024c0faa3e03437fb1239529004b2123513
:102cd0002b122df4801512312512393c9004b212ba
:102ce0002b6d906064e028f0a3e039f085218285a7
:102cf0002283e024fff0a3e034fff0ee242b123413
:102d0000bf9004aff0ee2420f582e43ff583122a51
:102d1000d960498e828f83a3a3a3a3a3a3a3a3a354
:102d2000a3e07038ee243212311fea4b702eee24ed
:102d30003912311fea4b7024e82401500109900434
:102d400093122c29852182852283122e0a9004b0a9
:102d5000122c28eefaeffb122b7d8027900493743f
:102d600001f0a3e4f0ee241e122b67852182852258
:102d700083122ae19004ab122e0a852182852283d8
:102d8000122c068e848f850592a3a3a3a3a3a3056b
:102d900092906064122e0a7a717b0212217b892242
:102da000e82405f8e43522f9858482858583122c90
:102db000288e828f83a3a3a3a312312585848285c5
:102dc0008583e0f8c3ea98eb99a2d265d033500529
:102dd000eaf0a3ebf0122e07122dea122ae190047a
:102de0006012312512371302266bee242ef582e491
:102df0003ff58322122dfce8f0a3e92224eaf8e94a
:102e00003402f990606422900493122e0e22e0f8ae
:102e1000a3e0f92274f512230d74fe122237122456
:102e2000d28031c2e51238afc0e09004bae0122e71
:102e3000dfd0e0f09004bae004f0a3e004f0a3e0f7
:102e400004f09004bee0700c7401f07b007a00790d
:102e50000012397d90605ae0f521906002e0a2e016
:102e600050047800800590605de0f89004bbe0fac3
:102e7000e52128f8e43400f9e86a7001e960589027
:102e800004bae0f52374012523547ff521e52312cc
:102e90002edfe0f808089004bae028f074802521bd
:102ea000f582e43460f5830592900460e0f8a3e0d5
:102eb000c82408f584e438f585e0a2e70592e040ef
:102ec00003022e23d2e5f0122ef124db1238affae2
:102ed000122ef14a022e33853282853383802412ea
:102ee0002ee322547ff8748028f582e43460f58361
:102ef000229004bae0122ee3e022853282853383e9
:102f00005392fe1224da740212221c7f040223c29e
:102f100074f512230d74fe1222371224d289210572
:102f200092900460e0f582a3e0f583858284858336
:102f300085a3a3a3a3a3a3a3a3e0a2e74046900471
:102f4000bde0f8906054e0c398f5229004bde02500
:102f500022f0ae82af838011ee2439fae43ffb12f7
:102f600015faea4b60031217e085222374ff25232c
:102f7000f5220470e3e521a2e640097900eefaefbc
:102f8000fb121750022efac0e074f11224088535a6
:102f9000c675a70075a10079501219a87f010224f7
:102fa0006fc0d075d01875bf00d0d032c0e0c0d08f
:102fb00075d018c092c082c083c0f08535c6e59137
:102fc000fe759b00f4f5915392fe906002e0a2e042
:102fd00050047800800278087900e844015e6003bc
:102fe000122e14eea2e55004f9122f10eea2e750b3
:102ff00029e5a8f8c2af9004d4e0d2e0f07534001f
:10300000e8a2e7e433f9e8a2e792afe594a2e24050
:1030100009759403e594a2e250faeea2e640030299
:1030200030ec906061e0f99004bbe4f09004bdf0f6
:103030009004601231258a828b83a3a3a3a3a3a348
:10304000a3a3e02410601224fc600924fc700f127a
:10305000267e8066122721806112161e805c9004f5
:1030600090e060051460148023906060e0648060ec
:103070001be0c0e0123109d0e08010906058e0f809
:1030800090605ce028f8123109e028f0906060e080
:1030900064806016e0c0e0900460e0f8a3e0c8241b
:1030a00013f582e438f583d0e0f0900491e0a2e0db
:1030b0005005122c2e8003122ae9906059e0f890f6
:1030c00004a3e028f0906058e0f89004a4e028f011
:1030d00090605a12310090605e12310090605ce0a6
:1030e000f89004a6e028f012160c8004a2e7500322
:1030f000123758d0f0d083d082d092d0d0d0e032e6
:10310000e0f89004a5e028f022ea242cf582e43bc4
:10311000f583e0fa746b2af582e43404f58322f532
:1031200082e43ff583e0faa3e0fb2274f712230d5b
:10313000ea242af582e43bf583e025e0f8e433f95c
:1031400074f928f582740739f583e02432f8a3e096
:103150003400f9ea1231ad3bf583e0f521a3e0122a
:1031600031b3e8241ff8e93403f97a207b031221f4
:103170007b88218922ac21ad227a717b0212217bce
:103180008a218b22740578211221f39004ad12312b
:10319000cfecf8edf97a717b0212217b9004ab122f
:1031a0002c289004b2ecf0a3edf0022679241ef551
:1031b00082e422f5221231b922e88521f0a4c8aabe
:1031c000f08522f0a42afa8521f0e9a42af922e563
:1031d00021f0a3e522f02274f712230d74fe1222cf
:1031e000371224d2900460e0fca3e0fd122e07ec1d
:1031f0002429f582e43df583ec242bfae43dfb8a97
:10320000848b85740168497012e0f80592e028fa11
:10321000c39425402974db2afa8023e0f521e88550
:1032200021f0a4f8aaf08521f0e9a42af90592e09a
:10323000fae82af8e439f97a257b0012217beaf0d2
:10324000ea131313541ff8ec28f8e43df9e824249a
:10325000f582e439f5830592e0c0e074075af8d0ae
:10326000e0b800028004c313d8fca2e04028800527
:10327000e8cac39afaec24e5f582e43df583e0f868
:10328000eac39850ebec2af8e43df9e824c0f58253
:10329000e439f583e0faec242cf582e43df583ea89
:1032a00002266a74f612230d74fe1222371224d2fb
:1032b000900417e09060026004740e8002740ff0b6
:1032c000900411e0906001f090080912208990614b
:1032d0009512209512175c900416e0f52174016593
:1032e0002190040f7040e05402f97a187b04121602
:1032f0003c90040fe0a2e050097a9d7b04752140c8
:1033000080077a977b04752100a2e150047e8080bb
:10331000027e0075230678231224ea7c187d04e5da
:10332000214e44018068e0a2e050087a9d7b047839
:103330004080067a977b047800059290043d122520
:10334000017c1e7d04740d2521f582e43408f5838b
:103350000592e048f9121642740112221c900416dc
:10336000e0f86005740268702e90040fe0a2e0504f
:10337000087a9d7b04784080067a977b0478000564
:103380009290045d1225017c3e7d04e84404f9120c
:103390001642740112221c90040fe0a2e0e433f9fb
:1033a000121636759100900417e0906182600474e3
:1033b000c8800274c0f08532828533831224da74a7
:1033c0000212221c7f030223c2c082c0835392feda
:1033d000906002740ff09003f8e004f06403700250
:1033e000e4f0e02425906000f09008091220899014
:1033f00061951220959003f6e05420f912163612ca
:10340000175c9003f6e0a2e15004d2f08002c2f013
:10341000a2f0e43390600cf09003f6e0a2e15035a6
:1034200075d90da2e55004784080027800e8440385
:10343000f5d9e0a2e550067a9d7b0480047a977b5b
:10344000047906121612740675d9001470fae5e1b3
:1034500070fc75e19575910090618274c10225dc64
:1034600074f812230d74fe1222371224d21235186a
:1034700012175c12350e1220899061951220951258
:1034800035611231d7123548f584e43ff5858584de
:1034900082858583123530121750ee24121234bf04
:1034a000a2e250180592e0f8a3e0f5838882059225
:1034b000a3a3e02402f89061d5e028f0022b54f594
:1034c00082e43ff583e02274f812230d12351812be
:1034d000175c12350e1220899061951220951235d5
:1034e000611231d7123548f582e43ff58312353049
:1034f000121750ee1231ad3ff58312352b24fcf834
:10350000e934fff98e828f83122c24022b62ee2481
:1035100014f582e43ff58322900460123525906013
:1035200002740ff022e0fea3e0ff22122b71e822ca
:10353000122e0eee2437f582e43ff583e8f0a3e97e
:10354000f07900eefaeffb22ee242c1234bf9060eb
:1035500000f07591009004c8e0906182f0ee24398b
:1035600022ee24361234bf906008f0ee2418123494
:10357000bf906005f0ee24191234bf906006f0eea3
:10358000241a1234bf906007f02274f112230d74d4
:10359000fe1222371224d27521007522007c677d2d
:1035a00004801b888289831235258c828d83eef0fe
:1035b000a3eff0888289831231cf882189228c82ff
:1035c0008d83122acc4f70398c828d83eaf0a3eb65
:1035d000f08a828b83e4f0a3f0aa21ab22853282a9
:1035e0008533831224da740212221c7f080223c25c
:1035f000e5232527f8e5243528f98a828b83122aca
:10360000dfeef8eff988828983a3a38a848b85058e
:1036100092a3a3e0f523a3e0f5240592e0c395234c
:10362000f523a3e09524f5248a828b83a3a3a3a387
:10363000a3a3e0f525a3e0f526c3e5239525e5241e
:103640009526a2d265d033403e8a828b83122c28e5
:103650008a828b83a3a3a3a3858284858385122e6c
:103660000ac3e52398e52499a2d265d033500d858d
:103670008482858583e523f0a3e524f08c828d8305
:10368000eaf0a3eb0235d888828983a3a3a3a3a37e
:10369000a3e0f527a3e0f528c3e49527f525e495f5
:1036a00028f526c3e5259523e5269524a2d265d0e5
:1036b0003350288a828b83a3a3a3a3a3a3a3a3e04d
:1036c000a2e750030235f088828983a3a3a3a3a3b2
:1036d000a3a3a3e0a2e750030235a388828983a3b2
:1036e000a3a3a3858284858385c3e49523fce49505
:1036f00024fd123525c3ec9eed9fa2d265d0335038
:103700000b858482858583ecf0a3edf0e8fce9fd70
:103710000235be74f712230d74fe1222371224d222
:10372000ea4b6031a2afe433fec2af12358a8a821f
:103730008b838016aa82ab838582848583850592dc
:10374000e0f582a3e0f58312358ae582458370e4d3
:10375000eea2e092af02266b74f512230d790012ef
:10376000198a8a238b2479771219a89061b1e4f021
:10377000e070f87403f0e0640370f8900467122eb0
:103780000a900460122c28e8497012123898e594c7
:10379000a2e240030238927594000238928882892e
:1037a00083123125900467eaf0a3ebf088828983c5
:1037b000a3a3122c1c88828983a3a3a3a3e02521a1
:1037c000f8a3e03522f9e824fdfee934ffff90601c
:1037d0006074801238af2410601424fc600624fc4e
:1037e000600780451232a380501233c9804be52117
:1037f000c39523e5229524c39400a2d265d033500b
:1038000023e5232401f521e43524f522c3e5219e97
:10381000e5229f4009e5212401fee43522ff9003c3
:10382000ef1231cf1217628010900491e0a2e050a5
:103830000512346080031234c7aa21ab22793012fa
:10384000199ceefaeffb794012199c79541219a8d1
:10385000e521c39523f8e5229524f9c3e89401e90d
:103860009400a2d265d033500c121774e5e170fcbd
:1038700075e121801d900367e0a2e04012aa21ab10
:10388000221219969004a71220651238988003120c
:10389000177412185e022f0be5a8f8c2af9004d47b
:1038a000e0c2e0f0753400e8a2e7a2e792af22f0b0
:1038b0001238b422900460e0f8a3e0c82408f5822e
:1038c000e438f583e0220000853487c2af22c0e0ef
:1038d000c0d075d018c092c082c083c0f074fc12f2
:1038e00022065392fe9004d5e0601c12163090031d
:1038f00067e054117008e5c654384487f5c6900453
:10390000d5e4f0c2c78020c2c7aa32ab3312176e0b
:10391000e9640170129004d57401f0853282853318
:1039200083122059121852753400740412221cd0cc
:10393000f0d083d082d092d0d0d0e03275c3007462
:1039400020c39afa744e9bfbeaf5a2ebf5a35392bf
:10395000fe22c02175c301e5a2f521e5a375c300d0
:10396000f9e5212420f8e9344ef9e8c39af8e99bf7
:10397000f9e8f5a2e9f5a3d0215392fe2274f512dd
:10398000230de9feeaff8b21753400a2afe433f585
:1039900022c2af900576e0f52474012524540ff57a
:1039a00023900575e0652370057900121a02e5245d
:1039b00075f003a4f8a9f0740328f8740539f9e840
:1039c0002442f582e439f583eef0e82443f582e4fd
:1039d00039f583eff0e82444f582e439f583e521f5
:1039e000f0e523900576f0e522a2e092af7f040295
:1039f00023c2c082c08374fc122206e5a8f8c2afbd
:103a0000e5958532828533835392fef0e596c0e0da
:103a10007401122270d0e0f0e597c0e07402122227
:103a200070d0e0f0e8a2e7a2e792af740312227030
:103a3000e4f0853282853383122059740412221ceb
:103a4000d083d08222c0e0c0d075d018c092c0828e
:103a5000c083c0f0121b6a1239f290060a12206568
:103a6000e58955ab90060ef0e580900611f09006c2
:103a70000ee0f4f5899062d0e0f8a2e150279006bc
:103a80000ee0a2e5501f53abdf9062d0e0a2e0e46d
:103a900033900614f090060ee0c2e5f07b307a0019
:103aa000790612397d90060ee0600e7b007a00796f
:103ab0000612397d7900121b76c2c5d0f0d083d0b2
:103ac00082d092d0d0d0e032c0e0c0d075d008c053
:103ad00092c082c083c0f0121b6a1239f290060aab
:103ae000122065e58a558df890060ff0e590900656
:103af00012f0e8f4f58a7b017a00790612397d79b3
:103b000001121b76c2eb80b3c0e074f0122408905f
:103b100061a9e06017c2afe589f8e5abf975ab00c4
:103b2000e4f090624bf0888989abd2af900619e03f
:103b3000640f7012e5c7f8900368e0f5c790ff1caa
:103b4000e0f4f5ae88c7e5bbf8e5baf521e8fb90ef
:103b50000619e025e0f8e433f9741a28f5827406b2
:103b600039f583e521f0a3ebf0900619e02410fb72
:103b70007a00790612397de5a8f8c2af9004d4e046
:103b8000c2e2f0753400e8a2e7a2e792af7f02023a
:103b9000246fc0e0c0d075d018c092c0f0e5d1f855
:103ba00075d100c2c0a2e350097b037a00790412e8
:103bb000397dd0f0023ac1c0e0c0d075d010c092bb
:103bc000c021c022c082c083c0f05392fe90071073
:103bd000123cd2602a9006cbe0700c7401f07b009e
:103be0007a00790412397dee900710f0e5c1c0e04b
:103bf00074122521f582e43407f583d0e0800be5cb
:103c0000c4a2e650069006ca7401f0023cc1c0e0ae
:103c1000c0d075d010c092c021c022c082c083c065
:103c2000f0c2e95392fe9006cde0fa9006cce09afd
:103c3000543ff8602974ce2af582e43406f583e017
:103c4000f974012a543f9006cdf089c190070ee027
:103c50006870197b027a00790412397d800ee5a81c
:103c6000f8c2af9004d4e0c2e3123d408053c0e0fc
:103c7000c0d075d010c092c021c022c082c083c005
:103c8000f05392fe90079a123cd26029900755e0bb
:103c9000700b7401f07b00fa790412397dee900705
:103ca0009af0e5f9c0e0749c2521f582e43407f52b
:103cb00083d0e0800be5fba2e65006900754740128
:103cc000f0d0f0d083d082d022d021d092d0d0d0ea
:103cd000e032e0f52174012521543ffea3e06e227d
:103ce000c0e0c0d075d010c092c021c022c082c038
:103cf00083c0f0c2ea5392fe900757e0fa9007564d
:103d0000e09a543ff8602974582af582e43407f5a4
:103d100083e0f974012a543f900757f089f990071e
:103d200098e06870197b027a01790412397d800e5f
:103d3000e5a8f8c2af9004d4e0c2e4123d4080810f
:103d4000f0753400e8a2e7e433f9e8a2e792af2285
:103d50000306030202030302060203030105020233
:103d6000010001010101000003020000050002073b
:103d7000070002030101010806060503040401030c
:103d80000602020202010f000803050502070101f5
:103d90000901010201010200000003020201050500
:103da00002010103050001000301000000010104fc
:103db00004020302040104010074f012229e74f054
:103dc000122206e5c7f528900368e0f5c7752110b3
:103dd00075220078211224e67cdd7d037402122214
:103de0008c121cd2740212221c78211224e67c0050
:103df0007d007add7b03121cd8740212221c75210f
:103e000000805a852182a882e875f06fa4faabf091
:103e1000900365123f52246ef582e43bf583e0a2e5
:103e2000e050387f008f82ac82e875f037a4faab9f
:103e3000f09003d3123f522cfae43bfbea241af52c
:103e400082e43bf583e0fa74dd2cf582e43403f57b
:103e500083e04af00fefc3941040ca052190036439
:103e6000e0f8e521c398409b752100852182a88256
:103e700074dd1267253403f583e0fa8532828533d9
:103e800083e5821267253583f583e06af00521e535
:103e900021c3941040d5752100852182ae827f0018
:103ea000123f41a3a3a3a3a3a3a3a3e0f8123f41fe
:103eb000e048f52260778f27e522a2e0505c752369
:103ec000018f24e52778231221f3a82374dd2ef532
:103ed00082e43403f583e0586004790180027900bc
:103ee00074e52ef582e43403f583e0586004e9d2ea
:103ef000e1f98e238f24740378231221f38527257b
:103f0000e5232525fae43524fb74a02af58274f70d
:103f10003bf583e0fa7b00121b640527e522c313ff
:103f2000f522e527c394085004e522708b0521e5ae
:103f300021c394085003023e998528c77410024497
:103f400009853282853383e5822ef582e43583f557
:103f50008322123f5622e02afaa3e03bfbea2274b6
:103f6000f612229ee975f037a4faabf012130c900a
:103f700003d3126752e5c7ff900368e0f5c790f7d7
:103f80009e125c46e4c39af521741f9bf5227821aa
:103f90001224e67c007d00121cd8740212221c8fb1
:103fa000c779087cd57d037a007b0012182ee9645e
:103fb00008601b75210875220078211224e67c0018
:103fc0007d007ad57b03121cd8740212221c800e4d
:103fd0008532828533831224da740212221c7f0216
:103fe00002237674f012229e74fe1222371224d21b
:103ff0008a278b2812631e0592a38582218583223e
:10400000125c46ea4b60158e828f83a3a3a3858240
:1040100023858324c3e09aa3e09b500879011214fe
:10402000aa02410c05929007e51224f97b0705923c
:104030001263161219ba740412221c8e828f83a383
:10404000a3a3a3a38582258583268e828f83e01474
:10405000604a14606414602c14600d1470030240f4
:10406000f224fe607d02410c85238485248505921f
:104070001224fd8521828522830592124129121383
:104080006002410578251224e68523848524850570
:10409000921224fd12411612135480167825122410
:1040a000e685238485248505921224fd124116128b
:1040b000132a740412221c805a78251224e6ee2456
:1040c00017f584e43ff58505921224fd8523848548
:1040d00024851224fd124116121318740612221c94
:1040e0008031ee2417f582e43f127653e523452410
:1040f000700812412312135a801978231224e612f1
:104100004123121330740212221c8007aa27ab2805
:104110001217e00267dcee2415f582e43ff5830513
:1041200092e0f98521828522831259d7aa27ab28ec
:104130002274f612229e74fe1222371224d2eafe54
:10414000ebff89211263141219ae1247a4242a121c
:1041500052bbe060220592e024fd600c24fc701448
:10416000740765217011800c740a65216006740162
:1041700065217003752100e4439201f00592f090ef
:104180000363e0f522ac21eefaeffbe0f9121b2eff
:10419000900363e065226005a9221213f0023fd06c
:1041a00074f612229ee9ff8c218d22900363e0febb
:1041b00078211224e6740c122270e0fdeffc9003cb
:1041c00063e0f9121ae0740212221c900363e06e9d
:1041d0006005eef91213f0023fde74f212229e74b3
:1041e000fe1222371224d28a258b2612427b121904
:1041f000ae900363e0ff858482858583a385822357
:1042000085832478211224e6eefd7c0485238285b3
:104210002483124329121ae0740212221c900363b1
:10422000e06f6005eff91213f0e5842417f8e43528
:1042300085f988828983e02ef0a3e03400f07416bb
:104240006e701788828983c3e09416a3e0940040bf
:1042500009aa25ab261214a480197900852382852a
:104260002483125c461214aae40592f0aa25ab2618
:104270001217e0853282853383801c8c218d22e9e0
:10428000fe1258cc7b07900363e0fa790122853255
:10429000828533835392fe1224da740212221c7f29
:1042a0000602237674f412229e74fe122237122420
:1042b000d28a238b2412427b1219ae0592e0f87445
:1042c0000768700feef9ac21ad22aa23ab241214bb
:1042d000b6804d740a680592900363700fe0ffee9c
:1042e000fcaa21ab22e0f9121ae6801de0ff78213a
:1042f0001224e6eefd7c00858482858583a312432b
:1043000029121ae0740212221c900363e06f600508
:10431000eff91213f0e40592f0aa23ab241217e090
:104320008532828533830260bf127694900363e006
:10433000f92274f012229e74fe1222371224d274d3
:10434000fe1222068a278b288a828b83a3a3a3a32b
:10435000a3a3a3a3a3858225858326126314121920
:10436000ae852782852883a3a3e024faf52312478c
:10437000218525848526850592a385328285338310
:1043800005921246fb7e00804e900363e0ffe584b9
:104390002402f521e43585f52278211224e674fe05
:1043a00029fd7c03858482858583124329121ae0c6
:1043b000740212221c900363e06f6005eff9121380
:1043c000f0852582852683e0f5212efee5842521d2
:1043d000f584e43585f585852582852683e0f9ee2b
:1043e000c3952340a48921e523c395211246ec12ed
:1043f00047301214a40267d712221c8532828533fb
:10440000835392fe1224da740212221c7f080223c4
:104410007674f012229e74fe1222371224d274fe99
:104420001222068a238b24ea2409f8e43524126335
:10443000081219ae852382852483a3a3e024faf50c
:10444000221258c8858427858528e527242af582e5
:10445000e43528f5837401f0126784640170047eea
:104460000280027e107521008010e06f6005eff978
:104470001213f074022e2521f521e521c395225057
:104480005a5392fe900363e0ffa821853282853360
:104490008312622e3400f585eef52578251224ea84
:1044a000e5842403fce43585fd12451c0592900348
:1044b00063e0f9121af8740112221ce99003637088
:1044c000a9e06f6005eff91213f085278285288334
:1044d000e4f0aa23ab241217e0803e852221e521d7
:1044e00024fef8e434fff98e21e8c39521f8e9941d
:1044f00000f98532828533835392fe12616824016c
:10450000f8a3e03400f98527828528830592a31259
:104510005e02aa23ab241214a40267d70592a3e07b
:10452000faa3e0fb2274f012229e74fe12223712cc
:1045300024d274fe1222068a278b28ea2409f8e482
:1045400035281263081219ae852782852883a3a314
:10455000e024fbf52112526105929003d3125739e2
:10456000858225858326e525242af582e43526f5ee
:104570008374010592f07f00800de06e6005eef916
:104580001213f074042fffefc39521505beff885f1
:104590003284853385125deb85828485838505921f
:1045a000900363e0fe75220278221224eae52524b6
:1045b00017f523e43526f52478231224e612470a5a
:1045c000121af2740312221ce990036370ace06ebd
:1045d0006005eef91213f0852582852683e4f0aaa2
:1045e00027ab281217e0802ca821853282853383df
:1045f0001261623400f9e824fef582e934fff583a4
:10460000124747852582852683a3125e02aa27ab1f
:10461000281214a40267d774f012229e74fe12228c
:10462000371224d274fe1222068a278b288a828ba4
:1046300083a3a3a3a3a3a3a3a3a3858225858326e2
:104640008a828b83a3a3e024faf521126314121942
:10465000ae1247218532828533831246fb7f00806c
:1046600012e06e6005eef91213f08525828526832f
:10467000e02fff852582852683e0f8efc395215042
:1046800056e5252ffae43526fb8a828b83a38582a3
:1046900084858385900363e0fe74fc28f5227822ec
:1046a0001224eaea2405f523e43bf52478231224b6
:1046b000e612470a121af2740312221ce9900363ed
:1046c000709fe06e6005eef91213f0126d60aa277c
:1046d000ab281217e080128823e521c395231246e8
:1046e000eca3a31247301214a40267d7f895e0f99f
:1046f000e52528f582e52639f583221275f5242a69
:10470000f582e438f5837401f022858482858583ff
:10471000a3a3125745faa3e0fb0592900363e0f9c7
:1047200022125b04853282853383e8f0a3e9f0220c
:10473000a3124747853282853383126d56e8f0a372
:10474000e9f0aa27ab2822e02401f8a3e03400f91d
:104750002274f612229e74fe1222371224d21213f1
:10476000f0e970047a86801f1247a42416f584505d
:104770000205850592e0a2e040047a8180091217c3
:10478000daea4b70067a827b01800d0592e0c2e086
:10479000f012136c7a007b0085328285338353924a
:1047a000fe023fd61258cce5842274f212229e7487
:1047b000fe1222371224d2eafeebff8c258d261240
:1047c00013f0e970047a868012124b0860047a8133
:1047d00080091217daea4b70067a827b0180307406
:1047e00010122270e0f8c3941450048822800375dc
:1047f000221485252385262478231224e6a922ee77
:10480000fceffd12134e740212221c7a007b000290
:10481000428e74f012229e74fe1222371224d28a23
:10482000278b28ecff1213f0e970047a868025129a
:104830004b0860047a81801cefa2e04005c3940419
:1048400050047a80800e1217da8a258b26ea4526d4
:1048500070067a827b018034efc394165004effe19
:1048600080027e16740a1249961224f97b0705927b
:104870001263161219ba740412221ceef9ac27ad99
:1048800028aa25ab261213427a007b000243fb7450
:10489000f012229e74fe1222371224d28a258b2611
:1048a000ecfeedff7414122270e0f521c394135056
:1048b000191213f0e970047a868021124b08600403
:1048c0007a818018e525452670047a80800e1217bb
:1048d000da8a278b28ea452870067a827b01804d88
:1048e00074080592f0a3e525f0a3e526f09007e50e
:1048f0001224f97b0705921263161219ba74041276
:10490000221c741212227a05921224fd8e238f2407
:10491000059278231224e6a921ac25ad26aa27ab5f
:1049200028121336740412221c7a007b000243fb07
:1049300074f412229e74fe1222371224d28a22129a
:1049400013f0e970047a86801a124b0860047a81a9
:1049500080111217da8a238b24ae23af24ee4f7016
:10496000067a827b01802c74091249961224f97b05
:104970000705921263161219ba740412221ce5225a
:104980006004790180027900eefaeffb12133c7aa1
:10499000007b000260b60592f0a3e4f0a3f090075c
:1049a000e52274f012229e74fe1222371224d2eafb
:1049b000feebff8c278d281213f0e970047a8680b5
:1049c0001f124b0860047a818016ee4f70047a80c3
:1049d000800e1217da8a258b26ea452670067a821f
:1049e0007b0180547412122270e0f8c394145004b6
:1049f0008821800375211474060592f0a3eef0a3bc
:104a0000eff09007e51224f97b0705921263161266
:104a100019ba740412221c852723852824782312ae
:104a200024e6a921eefceffdaa25ab26121348745b
:104a30000212221c7a007b000243fb74f412229eb5
:104a400074fe1222371224d2eafeebff1213f0e9b1
:104a500070047a86801a124b0860047a818011ee05
:104a60004f70047a8080091217daea4b70067a8256
:104a70007b01802a7407124b03eef0a3eff08584cc
:104a800082858583a3a3a3eef0a3eff0e58424172a
:104a90001252bbe4f0a3f01214a47a007b0002606f
:104aa000b674f412229e74fe1222371224d2eafe49
:104ab000ebff1213f0e970047a86801a124b08603b
:104ac000047a818011ee4f70047a8080091217da1f
:104ad000ea4b70067a827b0180267405124b03a391
:104ae000a3a882a983eef0a3eff0888289831255f0
:104af000830592a3e8f0a3e9f01214a47a007b00e6
:104b00000260b6124c6ca3221258cc0592e02274bb
:104b1000f212229e74fe1222371224d28a218b2294
:104b2000ecfeedff1213f0e970047a868012124b4e
:104b30000860047a8180091217daea4b70067a82db
:104b40007b01801d7404124b03e521f0a3e522f0e4
:104b50000592a3a3a3eef0a3eff01214a47a007bb6
:104b60000002428e74f012229e74fe12223712242a
:104b7000d28a278b288c258d261213f0e970047aaf
:104b800086802e124b0860047a81802574141222cc
:104b9000700592e0ff74026f600974106f60047a10
:104ba00080800e1217da8a238b24ea452470067a55
:104bb000827b01803474030592f08f2175220005f9
:104bc0009278211224e67414122270124c95121c51
:104bd000d2740212221c124c78858482858583123d
:104be0004c861214a47a007b000243fb74f012225c
:104bf0009e74fe1222371224d28a278b288c258d90
:104c0000261213f0e970047a86802e124b08600495
:104c10007a81802574141222700592e0ff74026f6d
:104c2000600974106f60047a80800e1217da8a238c
:104c30008b24ea452470067a827b01802c8f2175b3
:104c4000220078211224e67414122270124c95125c
:104c50001cd2740212221c124c787401124c6c1279
:104c60004c861214a47a007b000243fb0592f08567
:104c70008482858583059222e5842415f582e435b6
:104c800085f583eff022124d4ae525f0a3e526f0e5
:104c9000aa23ab24221259d7e5842405fae43585ea
:104ca000fb2274f012229e74fe1222371224d28a42
:104cb000278b288c218d221213f0e970047a8680cc
:104cc00029124b0860047a81802074161222700524
:104cd00092e0ffc3941140047a80800e1217da8aa2
:104ce000258b26ea452670067a827b01805974124c
:104cf000122270125583e5842417f582e43585125b
:104d00005e0074020592f0e58424151252bbef0593
:104d100092f08f2375240078231224e67416122251
:104d200070124c95121cd2740212221c858482854a
:104d30008583124d4ae521f0a3e522f0aa25ab2692
:104d40001214a47a007b000243fba3e527f0a3e53d
:104d500028f00592a3a3a32274f112229e74fe12de
:104d600022371224d274fc1222067402122270120c
:104d70006752e5c7f527900368e0f5c77402122271
:104d800070127604853284853385e5820592f0a31e
:104d9000e583f0853282853383059212678afa743f
:104da000021222700592e02a124eee059290f79db3
:104db000e0f525ff741dc39af5268e228e2180080a
:104dc0000522efc313ff052190f79ce0fce521c30a
:104dd0009c5043eec39526503d124eff70e8efa263
:104de000e050dfa3a3a3a3a3e0640270d375230262
:104df00075240078231224e61259cce5842ef8e4b9
:104e00003585f9e82402fae439fb121cd274021247
:104e1000221c0e0e80acee6013858482858583a3f0
:104e2000ef6004740280027403124ed7e52270030f
:104e3000024ecf8532828533835392fe12678af801
:104e4000741dc398fa95e0fbc3ea9410eb9400a29a
:104e5000d265d033407974021222700592e0281294
:104e60004eeeaf258e218006efc313ff0521e5210d
:104e7000c39c5041e526603d5392fe124eff70ecfc
:104e8000efa2e050e3a3a3a3a3a3e0641070d9753d
:104e900023108e2478231224e61259cce5842402b0
:104ea000fae43585fb121cd2740212221c7e1074a7
:104eb000ff2522600e8584828585835392fea3742c
:104ec000068009858482858583a37407124ed78561
:104ed00027c77404026e6bf074012ef80592f00877
:104ee000853282853383059212678e28f022f584fd
:104ef000a3e03400f5850592a3a3a3a37e0022902e
:104f0000f796127640e52175f006a4faabf0e82a90
:104f1000fae93bfb8a828b83e02274f012229e74b2
:104f2000fe1222371224d274f912220685328285ab
:104f30003383ecf0a3edf08a278b28e9fe7522007d
:104f4000126d608a828b830592a3a3a3a38582231b
:104f500085832474026e600caa23ab241219eae93b
:104f600060027e02741912227012620f7410059290
:104f7000f074026e6003024ffe8523828524830550
:104f800092125583e8700374286970567f00741973
:104f900012227012620f740a0592f0e5c7c0e07425
:104fa00004122270d0e00592f0900368e0f5c71279
:104fb0006d60059290f79ce0f526f582ac8285271e
:104fc00082852883126e62500302513985278285bb
:104fd0002883a3a3125c46c3ec9ae49b50258c253e
:104fe0008024740168700374286970047f01809eb6
:104ff000740368700374286970047f0280907900dc
:10500000025146eaf525e814f521801274021222b5
:1050100070127601e521f0a3e4f015210521e521c8
:10502000c39525400302512a12558074051222703f
:10503000125e02852182a8827900e875f006a4fa42
:10504000abf0740512227a0592e02af582a3e03bc8
:10505000f583ac82ad830592e06f70c0852282aa91
:10506000828532848533850592e02a12572d740299
:1050700012227ae5820592f0a3e583126cf8e0240f
:1050800004f527126784f5236009e527652360038b
:1050900002512a852723ea126ce6400302512ae5d1
:1050a00027f0eaf522e824010850010974021222cf
:1050b00070059212620fe80592f0a3e9126cf812e3
:1050c00059c31224e68c828d83a3a3a31275fb120d
:1050d0002270126d20121cd2740212221c8029e54b
:1050e0002175f006a4f8a9f074051222705392feff
:1050f000125e08f8700302500c74016870030250cd
:105100000ce86f700302500c0521e521c395264081
:10511000cee5266521600302500c74021222701243
:10512000760174fff0a3f002501ce522600b7419a5
:105130001222705392fe126d667404122270539202
:10514000fee0f5c7a92274070243f874f712229e05
:1051500074fe1222371224d21242811219ae059225
:10516000e0f8740668600a7408686005740968707d
:105170001ce41252b27c0012451c0592e0f9121b8d
:105180002e900363e06e6005eef91213f00261e306
:1051900074f212229e74fe1222371224d28a258bb8
:1051a00026ecffedfeec24010ce43400fd12131e8e
:1051b0008a848b8574101222701259d3ec4d701da5
:1051c000eff9121594e9fec3941540027e147d0098
:1051d000eefceff9aa84ab851215ac801aeec394ed
:1051e0001540027e148e2175220078211224e612c9
:1051f0001cd2740212221ceef9aa25ab261213242b
:105200000242738532828533830261ec74f7122285
:105210009e74fe1222371224d28a848b8512524e3b
:1052200060237b081263161219ae12524efae4f094
:10523000900363e0fef9121aec900363e06e6005e0
:10524000eef91213f0aa84ab851217e080b5125262
:10525000619003d3e028f8a3e039f9e8126f88e001
:10526000221252652212526922900363e075f037d0
:10527000a4f8a9f02274f712229e74fe12223712ab
:1052800024d2124b08640b6026e58424191252bb09
:1052900074010592f01258c8740b05921252b2f9bb
:1052a000121b28900363e06e6005eef91213f00202
:1052b00061e3f00592900363e0fe22f582e4358518
:1052c000f5832274f012229e74fe1222371224d229
:1052d00074fd1222067401122270ecf0a3edf08925
:1052e000258a228b277a817b01e52275f006a4f8b6
:1052f000a9f090f796126b1af5850592a3a3a3e087
:10530000f582a3e0f583858284858385a3e08532d9
:1053100084853385f00592e0f52875210074ff65da
:1053200025600785252180020521900364e0f8e5ca
:1053300021c3984003025455852182a882e875f064
:105340006fa4fcadf0900365125591e584246e12b4
:1053500052bbe0a2e050d1e8900363f0900361e516
:1053600084f0a3e585f0853282853383e01313133f
:10537000541ffee05407f526e528a2e4503de8124c
:10538000545af8ed39f91260cca826b8000280040e
:10539000c313d8fca2e050231217daea4b60617401
:1053a0000112227a05921224fdad27ac22791b123c
:1053b0001534740212221c7a007b00e528a2e54015
:1053c0000302544c900363e012545afced39fdec97
:1053d0002422f582e43df583e0ac26bc0002800483
:1053e000c313dcfca2e0506412525160047a818045
:1053f000111217da8a238b24ae23af24ee4f7006e6
:105400007a827b01804f05929007e51224f97b0890
:1054100005921263161219ba740412221c74012523
:1054200022c0e01260d7126f88d0e0f0740112221f
:105430007a05921224fdad27ac22791deefaeffb1e
:10544000121534740212221c7a007b0074ff652549
:10545000700302532874030267d975f037a4f8a9c2
:10546000f09003d3e02efca3e03400fdec2822747e
:10547000f012229e74fe1222371224d289218c2728
:105480008d287522007412122270e0fea3e0ff8eb8
:10549000828f83e0f525e5c7f524125754f5269051
:1054a000f79ce0f8e526c39840097522018e828fab
:1054b000838023e526125c2670098524c77a887bc1
:1054c000018049a926121594e98e828f83f0c39535
:1054d000215007752207e4f08022a821e0c398f04c
:1054e000f8c39525500488238003852523e523f000
:1054f000ad21fca926aa27ab281215ac8524c7e547
:10550000226005fa7b0480047a007b000243fb746e
:10551000f612229e74fe1222371224d2eaf8ecfa16
:10552000edfb752100e5c7fe900368e0f5c7e814c0
:10553000fd740c12227012558390f79ce0fcedc3b1
:105540009c400b75210188828983e4f0801eed1256
:1055500055870592e0fca2e75004741080027402a3
:10556000888289830592f0ecf91219f68ec7e5213d
:10557000a2e05005fa7b0480047a007b00023fd051
:1055800090f7961276402275f006a4fcadf090f7e5
:1055900096e02cf584a3e03df5852274f612229e58
:1055a000e9ffeaf8ebf9e5c7fe900368e0f5c77498
:1055b0000a122270e0fbc3941540067a807b0180ba
:1055c0001690f79ce0c398e49950067a017b04801a
:1055d000061aeff91215468ec7023fde74f012224a
:1055e0009e74fe1222371224d274fe1222068532d5
:1055f00082853383ecf0a3edf089257e0012574eaf
:10560000f52290f79ce0c39522500302571ee52235
:1056100075f006a4f8a9f0059290f796125739850f
:1056200082278583280592a3a3e0fc24fa600a144c
:10563000600724fb600302571c7414122270e0f50b
:1056400021740c6c70030257028527848528850518
:1056500092a3a3a3e0f582a3e0f583852584aa8421
:10566000858284858385a3a3a3a3e0f8852123ea0b
:105670002523f523e43400f524e89523e49524c399
:1056800065d03350057e0d02571f0592a3a3858276
:1056900084858385852182a882790074066c88239d
:1056a00089247823701b1224e67402122270125788
:1056b00040faa3e03400fb121cd2740212221c80b8
:1056c000311224e6740212227012574012572daa8a
:1056d00082ab83121cd2740212221ce5212525c044
:1056e000e0852782852883a3a3a3126799d0e005cc
:1056f00092f08527828528835392fea3a3e0640c51
:10570000700b8532828533831259d380047c007def
:1057100000ab21aa2279ff12154680050e0e0e7fde
:10572000048526c7eefaeffb74020243f8f582a364
:10573000e03400f5830592a322125df539f583224a
:105740001257452a22e0fca3e0fd0592e0227f00eb
:10575000e5c7f526900368e0f5c7ea142274f41251
:10576000229e74fe1222371224d28c848d85e9ff8a
:10577000e5c7f521125754fe90f79ce0c39e5004f4
:1057800079018034740e122270e0f52260047a02ee
:1057900080027a80eef912158ee9701ce4f523f58b
:1057a0002478231224e6ad22effcaa84ab85eef91f
:1057b0001215a6740212221c8521c702432074f31d
:1057c00012229e74fe1222371224d28a218b2212b8
:1057d00058c88a828b83a3a3a3a3a3a3a3a3a3e0f4
:1057e000700f1259dd1215faea4b60781217e0803b
:1057f000f1e5c7fe900368e0f5c7e584242bf523a7
:10580000e43585f524852382852483126302605262
:1058100088828983a3a3a3a3a3a3a3a3a3aa82abe0
:1058200083e0ff8a848b850592a3a31224fd7d016a
:10583000888289830592a3a3e024f7fcea2404fa72
:1058400050010b74ff2ff91215a6740212221ce9e5
:10585000f525aa23ab241215fa1217e0e525702ec0
:1058600080a38ec7852182852283a3a37405f0853a
:105870002182852283a3a3a3a3a3a3a3a37419f0c6
:105880007900aa21ab22121324802a1217e01259a0
:10589000dd1215faea4b70f3e525f523782312247f
:1058a000ea8f23ac237d007918aa21ab221213784a
:1058b000740112221c8532828533831224da740229
:1058c00012221c7f050223761258cc2212526590b8
:1058d00003d31258d622e028f584a3e039f58522b7
:1058e00074f412229e74fe1222371224d28a848b00
:1058f00085858482858583a3a3a3a3a3a3a3a3a350
:10590000ae82af83e5c7f521900368e0f5c78e82cc
:105910008f83e014f990f79ce0c39950217401f54e
:105920002178211224ea8e828f831259d37916aa04
:1059300084ab85121378740112221c0243207a0270
:1059400012158ee970d91217da8a238b24ae23af91
:1059500024ee4f8521c7700c7a017b0090032e74d2
:1059600008022118ac84ad851259dd121600858419
:1059700082858583a3a38582218583221259c31240
:1059800024e6e5842404fce43585fdee2404fae4f1
:105990003ffb121cd2740212221c852182852283b5
:1059a000e08e828f83a3a3f08e828f83a3a3a3a311
:1059b000a3a3a3a37417f07900eefaeffb1213244c
:1059c00002593be0f5237524007823228a828b83d9
:1059d000a3a3a31259d722e0fca3e0fd221260dbaf
:1059e000242bfae439fb2274f112229e74fe122257
:1059f000371224d274fb122206740312227012672b
:105a0000528927ecfeed125aff7401122270125ec9
:105a100002e5c7f521900368e0f5c78e828f83a366
:105a2000a3e0f8ee1267253ff583a3a3a3a3858225
:105a300025858326741bc398f5228025e9c522c3da
:105a40009522f5228e828f83a3a3e029f0e52529f4
:105a5000f525e43526f5267401122270125afa044f
:105a6000f07401122270125afafac395275071e5a8
:105a700022606da832a9338823892478231224e672
:105a800085252385262478231224e6a9227c007dff
:105a900000ea2afae433fb7407122270125e11fa4c
:105aa000a3e0fb12157c740412221c85328285331c
:105ab00083e06088853284853385059212250174e0
:105ac00004122270059212678afca3e0fd790eeea3
:105ad000faeffb121378740112221c8521c7800c87
